{
  "contractName": "CryptoCoders",
  "abi": [
    {
      "inputs": [],
      "stateMutability": "nonpayable",
      "type": "constructor"
    },
    {
      "anonymous": false,
      "inputs": [
        {
          "indexed": true,
          "internalType": "address",
          "name": "owner",
          "type": "address"
        },
        {
          "indexed": true,
          "internalType": "address",
          "name": "approved",
          "type": "address"
        },
        {
          "indexed": true,
          "internalType": "uint256",
          "name": "tokenId",
          "type": "uint256"
        }
      ],
      "name": "Approval",
      "type": "event"
    },
    {
      "anonymous": false,
      "inputs": [
        {
          "indexed": true,
          "internalType": "address",
          "name": "owner",
          "type": "address"
        },
        {
          "indexed": true,
          "internalType": "address",
          "name": "operator",
          "type": "address"
        },
        {
          "indexed": false,
          "internalType": "bool",
          "name": "approved",
          "type": "bool"
        }
      ],
      "name": "ApprovalForAll",
      "type": "event"
    },
    {
      "anonymous": false,
      "inputs": [
        {
          "indexed": true,
          "internalType": "address",
          "name": "from",
          "type": "address"
        },
        {
          "indexed": true,
          "internalType": "address",
          "name": "to",
          "type": "address"
        },
        {
          "indexed": true,
          "internalType": "uint256",
          "name": "tokenId",
          "type": "uint256"
        }
      ],
      "name": "Transfer",
      "type": "event"
    },
    {
      "inputs": [
        {
          "internalType": "address",
          "name": "to",
          "type": "address"
        },
        {
          "internalType": "uint256",
          "name": "tokenId",
          "type": "uint256"
        }
      ],
      "name": "approve",
      "outputs": [],
      "stateMutability": "nonpayable",
      "type": "function"
    },
    {
      "inputs": [
        {
          "internalType": "address",
          "name": "owner",
          "type": "address"
        }
      ],
      "name": "balanceOf",
      "outputs": [
        {
          "internalType": "uint256",
          "name": "",
          "type": "uint256"
        }
      ],
      "stateMutability": "view",
      "type": "function",
      "constant": true
    },
    {
      "inputs": [
        {
          "internalType": "uint256",
          "name": "",
          "type": "uint256"
        }
      ],
      "name": "coders",
      "outputs": [
        {
          "internalType": "string",
          "name": "",
          "type": "string"
        }
      ],
      "stateMutability": "view",
      "type": "function",
      "constant": true
    },
    {
      "inputs": [
        {
          "internalType": "uint256",
          "name": "tokenId",
          "type": "uint256"
        }
      ],
      "name": "getApproved",
      "outputs": [
        {
          "internalType": "address",
          "name": "",
          "type": "address"
        }
      ],
      "stateMutability": "view",
      "type": "function",
      "constant": true
    },
    {
      "inputs": [
        {
          "internalType": "address",
          "name": "owner",
          "type": "address"
        },
        {
          "internalType": "address",
          "name": "operator",
          "type": "address"
        }
      ],
      "name": "isApprovedForAll",
      "outputs": [
        {
          "internalType": "bool",
          "name": "",
          "type": "bool"
        }
      ],
      "stateMutability": "view",
      "type": "function",
      "constant": true
    },
    {
      "inputs": [],
      "name": "name",
      "outputs": [
        {
          "internalType": "string",
          "name": "",
          "type": "string"
        }
      ],
      "stateMutability": "view",
      "type": "function",
      "constant": true
    },
    {
      "inputs": [
        {
          "internalType": "uint256",
          "name": "tokenId",
          "type": "uint256"
        }
      ],
      "name": "ownerOf",
      "outputs": [
        {
          "internalType": "address",
          "name": "",
          "type": "address"
        }
      ],
      "stateMutability": "view",
      "type": "function",
      "constant": true
    },
    {
      "inputs": [
        {
          "internalType": "address",
          "name": "from",
          "type": "address"
        },
        {
          "internalType": "address",
          "name": "to",
          "type": "address"
        },
        {
          "internalType": "uint256",
          "name": "tokenId",
          "type": "uint256"
        }
      ],
      "name": "safeTransferFrom",
      "outputs": [],
      "stateMutability": "nonpayable",
      "type": "function"
    },
    {
      "inputs": [
        {
          "internalType": "address",
          "name": "from",
          "type": "address"
        },
        {
          "internalType": "address",
          "name": "to",
          "type": "address"
        },
        {
          "internalType": "uint256",
          "name": "tokenId",
          "type": "uint256"
        },
        {
          "internalType": "bytes",
          "name": "_data",
          "type": "bytes"
        }
      ],
      "name": "safeTransferFrom",
      "outputs": [],
      "stateMutability": "nonpayable",
      "type": "function"
    },
    {
      "inputs": [
        {
          "internalType": "address",
          "name": "operator",
          "type": "address"
        },
        {
          "internalType": "bool",
          "name": "approved",
          "type": "bool"
        }
      ],
      "name": "setApprovalForAll",
      "outputs": [],
      "stateMutability": "nonpayable",
      "type": "function"
    },
    {
      "inputs": [],
      "name": "symbol",
      "outputs": [
        {
          "internalType": "string",
          "name": "",
          "type": "string"
        }
      ],
      "stateMutability": "view",
      "type": "function",
      "constant": true
    },
    {
      "inputs": [
        {
          "internalType": "uint256",
          "name": "index",
          "type": "uint256"
        }
      ],
      "name": "tokenByIndex",
      "outputs": [
        {
          "internalType": "uint256",
          "name": "",
          "type": "uint256"
        }
      ],
      "stateMutability": "view",
      "type": "function",
      "constant": true
    },
    {
      "inputs": [
        {
          "internalType": "address",
          "name": "owner",
          "type": "address"
        },
        {
          "internalType": "uint256",
          "name": "index",
          "type": "uint256"
        }
      ],
      "name": "tokenOfOwnerByIndex",
      "outputs": [
        {
          "internalType": "uint256",
          "name": "",
          "type": "uint256"
        }
      ],
      "stateMutability": "view",
      "type": "function",
      "constant": true
    },
    {
      "inputs": [
        {
          "internalType": "uint256",
          "name": "tokenId",
          "type": "uint256"
        }
      ],
      "name": "tokenURI",
      "outputs": [
        {
          "internalType": "string",
          "name": "",
          "type": "string"
        }
      ],
      "stateMutability": "view",
      "type": "function",
      "constant": true
    },
    {
      "inputs": [],
      "name": "totalSupply",
      "outputs": [
        {
          "internalType": "uint256",
          "name": "",
          "type": "uint256"
        }
      ],
      "stateMutability": "view",
      "type": "function",
      "constant": true
    },
    {
      "inputs": [
        {
          "internalType": "address",
          "name": "from",
          "type": "address"
        },
        {
          "internalType": "address",
          "name": "to",
          "type": "address"
        },
        {
          "internalType": "uint256",
          "name": "tokenId",
          "type": "uint256"
        }
      ],
      "name": "transferFrom",
      "outputs": [],
      "stateMutability": "nonpayable",
      "type": "function"
    },
    {
      "inputs": [
        {
          "internalType": "string",
          "name": "coder",
          "type": "string"
        }
      ],
      "name": "mint",
      "outputs": [],
      "stateMutability": "nonpayable",
      "type": "function"
    },
    {
      "inputs": [
        {
          "internalType": "bytes4",
          "name": "interfaceId",
          "type": "bytes4"
        }
      ],
      "name": "supportsInterface",
      "outputs": [
        {
          "internalType": "bool",
          "name": "",
          "type": "bool"
        }
      ],
      "stateMutability": "view",
      "type": "function",
      "constant": true
    }
  ],
  "bytecode": "0x60806040523480156200001157600080fd5b506040518060400160405280600c81526020017f43727970746f436f6465727300000000000000000000000000000000000000008152506040518060400160405280600381526020017f4343530000000000000000000000000000000000000000000000000000000000815250816000908051906020019062000096929190620000b8565b508060019080519060200190620000af929190620000b8565b505050620001cd565b828054620000c69062000197565b90600052602060002090601f016020900481019282620000ea576000855562000136565b82601f106200010557805160ff191683800117855562000136565b8280016001018555821562000136579182015b828111156200013557825182559160200191906001019062000118565b5b50905062000145919062000149565b5090565b5b80821115620001645760008160009055506001016200014a565b5090565b7f4e487b7100000000000000000000000000000000000000000000000000000000600052602260045260246000fd5b60006002820490506001821680620001b057607f821691505b60208210811415620001c757620001c662000168565b5b50919050565b61328d80620001dd6000396000f3fe608060405234801561001057600080fd5b50600436106101165760003560e01c80634f6ccce7116100a2578063a22cb46511610071578063a22cb46514610319578063b88d4fde14610335578063c87b56dd14610351578063d85d3d2714610381578063e985e9c51461039d57610116565b80634f6ccce71461026b5780636352211e1461029b57806370a08231146102cb57806395d89b41146102fb57610116565b806318160ddd116100e957806318160ddd146101b557806323b872dd146101d35780632f745c59146101ef57806342842e0e1461021f5780634cfa16f91461023b57610116565b806301ffc9a71461011b57806306fdde031461014b578063081812fc14610169578063095ea7b314610199575b600080fd5b61013560048036038101906101309190611f50565b6103cd565b6040516101429190611f98565b60405180910390f35b6101536103df565b604051610160919061204c565b60405180910390f35b610183600480360381019061017e91906120a4565b610471565b6040516101909190612112565b60405180910390f35b6101b360048036038101906101ae9190612159565b6104f6565b005b6101bd61060e565b6040516101ca91906121a8565b60405180910390f35b6101ed60048036038101906101e891906121c3565b61061b565b005b61020960048036038101906102049190612159565b61067b565b60405161021691906121a8565b60405180910390f35b610239600480360381019061023491906121c3565b610720565b005b610255600480360381019061025091906120a4565b610740565b604051610262919061204c565b60405180910390f35b610285600480360381019061028091906120a4565b6107ec565b60405161029291906121a8565b60405180910390f35b6102b560048036038101906102b091906120a4565b61085d565b6040516102c29190612112565b60405180910390f35b6102e560048036038101906102e09190612216565b61090f565b6040516102f291906121a8565b60405180910390f35b6103036109c7565b604051610310919061204c565b60405180910390f35b610333600480360381019061032e919061226f565b610a59565b005b61034f600480360381019061034a91906123e4565b610a6f565b005b61036b600480360381019061036691906120a4565b610ad1565b604051610378919061204c565b60405180910390f35b61039b60048036038101906103969190612508565b610b78565b005b6103b760048036038101906103b29190612551565b610c7b565b6040516103c49190611f98565b60405180910390f35b60006103d882610d0f565b9050919050565b6060600080546103ee906125c0565b80601f016020809104026020016040519081016040528092919081815260200182805461041a906125c0565b80156104675780601f1061043c57610100808354040283529160200191610467565b820191906000526020600020905b81548152906001019060200180831161044a57829003601f168201915b5050505050905090565b600061047c82610d89565b6104bb576040517f08c379a00000000000000000000000000000000000000000000000000000000081526004016104b290612664565b60405180910390fd5b6004600083815260200190815260200160002060009054906101000a900473ffffffffffffffffffffffffffffffffffffffff169050919050565b60006105018261085d565b90508073ffffffffffffffffffffffffffffffffffffffff168373ffffffffffffffffffffffffffffffffffffffff161415610572576040517f08c379a0000000000000000000000000000000000000000000000000000000008152600401610569906126f6565b60405180910390fd5b8073ffffffffffffffffffffffffffffffffffffffff16610591610df5565b73ffffffffffffffffffffffffffffffffffffffff1614806105c057506105bf816105ba610df5565b610c7b565b5b6105ff576040517f08c379a00000000000000000000000000000000000000000000000000000000081526004016105f690612788565b60405180910390fd5b6106098383610dfd565b505050565b6000600880549050905090565b61062c610626610df5565b82610eb6565b61066b576040517f08c379a00000000000000000000000000000000000000000000000000000000081526004016106629061281a565b60405180910390fd5b610676838383610f94565b505050565b60006106868361090f565b82106106c7576040517f08c379a00000000000000000000000000000000000000000000000000000000081526004016106be906128ac565b60405180910390fd5b600660008473ffffffffffffffffffffffffffffffffffffffff1673ffffffffffffffffffffffffffffffffffffffff168152602001908152602001600020600083815260200190815260200160002054905092915050565b61073b83838360405180602001604052806000815250610a6f565b505050565b600a818154811061075057600080fd5b90600052602060002001600091509050805461076b906125c0565b80601f0160208091040260200160405190810160405280929190818152602001828054610797906125c0565b80156107e45780601f106107b9576101008083540402835291602001916107e4565b820191906000526020600020905b8154815290600101906020018083116107c757829003601f168201915b505050505081565b60006107f661060e565b8210610837576040517f08c379a000000000000000000000000000000000000000000000000000000000815260040161082e9061293e565b60405180910390fd5b6008828154811061084b5761084a61295e565b5b90600052602060002001549050919050565b6000806002600084815260200190815260200160002060009054906101000a900473ffffffffffffffffffffffffffffffffffffffff169050600073ffffffffffffffffffffffffffffffffffffffff168173ffffffffffffffffffffffffffffffffffffffff161415610906576040517f08c379a00000000000000000000000000000000000000000000000000000000081526004016108fd906129ff565b60405180910390fd5b80915050919050565b60008073ffffffffffffffffffffffffffffffffffffffff168273ffffffffffffffffffffffffffffffffffffffff161415610980576040517f08c379a000000000000000000000000000000000000000000000000000000000815260040161097790612a91565b60405180910390fd5b600360008373ffffffffffffffffffffffffffffffffffffffff1673ffffffffffffffffffffffffffffffffffffffff168152602001908152602001600020549050919050565b6060600180546109d6906125c0565b80601f0160208091040260200160405190810160405280929190818152602001828054610a02906125c0565b8015610a4f5780601f10610a2457610100808354040283529160200191610a4f565b820191906000526020600020905b815481529060010190602001808311610a3257829003601f168201915b5050505050905090565b610a6b610a64610df5565b83836111fb565b5050565b610a80610a7a610df5565b83610eb6565b610abf576040517f08c379a0000000000000000000000000000000000000000000000000000000008152600401610ab69061281a565b60405180910390fd5b610acb84848484611368565b50505050565b6060610adc82610d89565b610b1b576040517f08c379a0000000000000000000000000000000000000000000000000000000008152600401610b1290612b23565b60405180910390fd5b6000610b256113c4565b90506000815111610b455760405180602001604052806000815250610b70565b80610b4f846113db565b604051602001610b60929190612b7f565b6040516020818303038152906040525b915050919050565b600b81604051610b889190612ba3565b908152602001604051809103902060009054906101000a900460ff1615610be4576040517f08c379a0000000000000000000000000000000000000000000000000000000008152600401610bdb90612c06565b60405180910390fd5b600a81908060018154018082558091505060019003906000526020600020016000909190919091509080519060200190610c1f929190611e41565b5060006001600a80549050610c349190612c55565b9050610c40338261153c565b6001600b83604051610c529190612ba3565b908152602001604051809103902060006101000a81548160ff0219169083151502179055505050565b6000600560008473ffffffffffffffffffffffffffffffffffffffff1673ffffffffffffffffffffffffffffffffffffffff16815260200190815260200160002060008373ffffffffffffffffffffffffffffffffffffffff1673ffffffffffffffffffffffffffffffffffffffff16815260200190815260200160002060009054906101000a900460ff16905092915050565b60007f780e9d63000000000000000000000000000000000000000000000000000000007bffffffffffffffffffffffffffffffffffffffffffffffffffffffff1916827bffffffffffffffffffffffffffffffffffffffffffffffffffffffff19161480610d825750610d8182611716565b5b9050919050565b60008073ffffffffffffffffffffffffffffffffffffffff166002600084815260200190815260200160002060009054906101000a900473ffffffffffffffffffffffffffffffffffffffff1673ffffffffffffffffffffffffffffffffffffffff1614159050919050565b600033905090565b816004600083815260200190815260200160002060006101000a81548173ffffffffffffffffffffffffffffffffffffffff021916908373ffffffffffffffffffffffffffffffffffffffff160217905550808273ffffffffffffffffffffffffffffffffffffffff16610e708361085d565b73ffffffffffffffffffffffffffffffffffffffff167f8c5be1e5ebec7d5bd14f71427d1e84f3dd0314c0f7b2291e5b200ac8c7c3b92560405160405180910390a45050565b6000610ec182610d89565b610f00576040517f08c379a0000000000000000000000000000000000000000000000000000000008152600401610ef790612cfb565b60405180910390fd5b6000610f0b8361085d565b90508073ffffffffffffffffffffffffffffffffffffffff168473ffffffffffffffffffffffffffffffffffffffff161480610f4d5750610f4c8185610c7b565b5b80610f8b57508373ffffffffffffffffffffffffffffffffffffffff16610f7384610471565b73ffffffffffffffffffffffffffffffffffffffff16145b91505092915050565b8273ffffffffffffffffffffffffffffffffffffffff16610fb48261085d565b73ffffffffffffffffffffffffffffffffffffffff161461100a576040517f08c379a000000000000000000000000000000000000000000000000000000000815260040161100190612d8d565b60405180910390fd5b600073ffffffffffffffffffffffffffffffffffffffff168273ffffffffffffffffffffffffffffffffffffffff16141561107a576040517f08c379a000000000000000000000000000000000000000000000000000000000815260040161107190612e1f565b60405180910390fd5b6110858383836117f8565b611090600082610dfd565b6001600360008573ffffffffffffffffffffffffffffffffffffffff1673ffffffffffffffffffffffffffffffffffffffff16815260200190815260200160002060008282546110e09190612c55565b925050819055506001600360008473ffffffffffffffffffffffffffffffffffffffff1673ffffffffffffffffffffffffffffffffffffffff16815260200190815260200160002060008282546111379190612e3f565b92505081905550816002600083815260200190815260200160002060006101000a81548173ffffffffffffffffffffffffffffffffffffffff021916908373ffffffffffffffffffffffffffffffffffffffff160217905550808273ffffffffffffffffffffffffffffffffffffffff168473ffffffffffffffffffffffffffffffffffffffff167fddf252ad1be2c89b69c2b068fc378daa952ba7f163c4a11628f55a4df523b3ef60405160405180910390a46111f6838383611808565b505050565b8173ffffffffffffffffffffffffffffffffffffffff168373ffffffffffffffffffffffffffffffffffffffff16141561126a576040517f08c379a000000000000000000000000000000000000000000000000000000000815260040161126190612ee1565b60405180910390fd5b80600560008573ffffffffffffffffffffffffffffffffffffffff1673ffffffffffffffffffffffffffffffffffffffff16815260200190815260200160002060008473ffffffffffffffffffffffffffffffffffffffff1673ffffffffffffffffffffffffffffffffffffffff16815260200190815260200160002060006101000a81548160ff0219169083151502179055508173ffffffffffffffffffffffffffffffffffffffff168373ffffffffffffffffffffffffffffffffffffffff167f17307eab39ab6107e8899845ad3d59bd9653f200f220920489ca2b5937696c318360405161135b9190611f98565b60405180910390a3505050565b611373848484610f94565b61137f8484848461180d565b6113be576040517f08c379a00000000000000000000000000000000000000000000000000000000081526004016113b590612f73565b60405180910390fd5b50505050565b606060405180602001604052806000815250905090565b60606000821415611423576040518060400160405280600181526020017f30000000000000000000000000000000000000000000000000000000000000008152509050611537565b600082905060005b6000821461145557808061143e90612f93565b915050600a8261144e919061300b565b915061142b565b60008167ffffffffffffffff811115611471576114706122b9565b5b6040519080825280601f01601f1916602001820160405280156114a35781602001600182028036833780820191505090505b5090505b60008514611530576001826114bc9190612c55565b9150600a856114cb919061303c565b60306114d79190612e3f565b60f81b8183815181106114ed576114ec61295e565b5b60200101907effffffffffffffffffffffffffffffffffffffffffffffffffffffffffffff1916908160001a905350600a85611529919061300b565b94506114a7565b8093505050505b919050565b600073ffffffffffffffffffffffffffffffffffffffff168273ffffffffffffffffffffffffffffffffffffffff1614156115ac576040517f08c379a00000000000000000000000000000000000000000000000000000000081526004016115a3906130b9565b60405180910390fd5b6115b581610d89565b156115f5576040517f08c379a00000000000000000000000000000000000000000000000000000000081526004016115ec90613125565b60405180910390fd5b611601600083836117f8565b6001600360008473ffffffffffffffffffffffffffffffffffffffff1673ffffffffffffffffffffffffffffffffffffffff16815260200190815260200160002060008282546116519190612e3f565b92505081905550816002600083815260200190815260200160002060006101000a81548173ffffffffffffffffffffffffffffffffffffffff021916908373ffffffffffffffffffffffffffffffffffffffff160217905550808273ffffffffffffffffffffffffffffffffffffffff16600073ffffffffffffffffffffffffffffffffffffffff167fddf252ad1be2c89b69c2b068fc378daa952ba7f163c4a11628f55a4df523b3ef60405160405180910390a461171260008383611808565b5050565b60007f80ac58cd000000000000000000000000000000000000000000000000000000007bffffffffffffffffffffffffffffffffffffffffffffffffffffffff1916827bffffffffffffffffffffffffffffffffffffffffffffffffffffffff191614806117e157507f5b5e139f000000000000000000000000000000000000000000000000000000007bffffffffffffffffffffffffffffffffffffffffffffffffffffffff1916827bffffffffffffffffffffffffffffffffffffffffffffffffffffffff1916145b806117f157506117f082611995565b5b9050919050565b6118038383836119ff565b505050565b505050565b600061182e8473ffffffffffffffffffffffffffffffffffffffff16611b13565b15611988578373ffffffffffffffffffffffffffffffffffffffff1663150b7a02611857610df5565b8786866040518563ffffffff1660e01b8152600401611879949392919061319a565b6020604051808303816000875af19250505080156118b557506040513d601f19601f820116820180604052508101906118b291906131fb565b60015b611938573d80600081146118e5576040519150601f19603f3d011682016040523d82523d6000602084013e6118ea565b606091505b50600081511415611930576040517f08c379a000000000000000000000000000000000000000000000000000000000815260040161192790612f73565b60405180910390fd5b805181602001fd5b63150b7a0260e01b7bffffffffffffffffffffffffffffffffffffffffffffffffffffffff1916817bffffffffffffffffffffffffffffffffffffffffffffffffffffffff19161491505061198d565b600190505b949350505050565b60007f01ffc9a7000000000000000000000000000000000000000000000000000000007bffffffffffffffffffffffffffffffffffffffffffffffffffffffff1916827bffffffffffffffffffffffffffffffffffffffffffffffffffffffff1916149050919050565b611a0a838383611b36565b600073ffffffffffffffffffffffffffffffffffffffff168373ffffffffffffffffffffffffffffffffffffffff161415611a4d57611a4881611b3b565b611a8c565b8173ffffffffffffffffffffffffffffffffffffffff168373ffffffffffffffffffffffffffffffffffffffff1614611a8b57611a8a8382611b84565b5b5b600073ffffffffffffffffffffffffffffffffffffffff168273ffffffffffffffffffffffffffffffffffffffff161415611acf57611aca81611cf1565b611b0e565b8273ffffffffffffffffffffffffffffffffffffffff168273ffffffffffffffffffffffffffffffffffffffff1614611b0d57611b0c8282611dc2565b5b5b505050565b6000808273ffffffffffffffffffffffffffffffffffffffff163b119050919050565b505050565b6008805490506009600083815260200190815260200160002081905550600881908060018154018082558091505060019003906000526020600020016000909190919091505550565b60006001611b918461090f565b611b9b9190612c55565b9050600060076000848152602001908152602001600020549050818114611c80576000600660008673ffffffffffffffffffffffffffffffffffffffff1673ffffffffffffffffffffffffffffffffffffffff168152602001908152602001600020600084815260200190815260200160002054905080600660008773ffffffffffffffffffffffffffffffffffffffff1673ffffffffffffffffffffffffffffffffffffffff168152602001908152602001600020600084815260200190815260200160002081905550816007600083815260200190815260200160002081905550505b6007600084815260200190815260200160002060009055600660008573ffffffffffffffffffffffffffffffffffffffff1673ffffffffffffffffffffffffffffffffffffffff16815260200190815260200160002060008381526020019081526020016000206000905550505050565b60006001600880549050611d059190612c55565b9050600060096000848152602001908152602001600020549050600060088381548110611d3557611d3461295e565b5b906000526020600020015490508060088381548110611d5757611d5661295e565b5b906000526020600020018190555081600960008381526020019081526020016000208190555060096000858152602001908152602001600020600090556008805480611da657611da5613228565b5b6001900381819060005260206000200160009055905550505050565b6000611dcd8361090f565b905081600660008573ffffffffffffffffffffffffffffffffffffffff1673ffffffffffffffffffffffffffffffffffffffff168152602001908152602001600020600083815260200190815260200160002081905550806007600084815260200190815260200160002081905550505050565b828054611e4d906125c0565b90600052602060002090601f016020900481019282611e6f5760008555611eb6565b82601f10611e8857805160ff1916838001178555611eb6565b82800160010185558215611eb6579182015b82811115611eb5578251825591602001919060010190611e9a565b5b509050611ec39190611ec7565b5090565b5b80821115611ee0576000816000905550600101611ec8565b5090565b6000604051905090565b600080fd5b600080fd5b60007fffffffff0000000000000000000000000000000000000000000000000000000082169050919050565b611f2d81611ef8565b8114611f3857600080fd5b50565b600081359050611f4a81611f24565b92915050565b600060208284031215611f6657611f65611eee565b5b6000611f7484828501611f3b565b91505092915050565b60008115159050919050565b611f9281611f7d565b82525050565b6000602082019050611fad6000830184611f89565b92915050565b600081519050919050565b600082825260208201905092915050565b60005b83811015611fed578082015181840152602081019050611fd2565b83811115611ffc576000848401525b50505050565b6000601f19601f8301169050919050565b600061201e82611fb3565b6120288185611fbe565b9350612038818560208601611fcf565b61204181612002565b840191505092915050565b600060208201905081810360008301526120668184612013565b905092915050565b6000819050919050565b6120818161206e565b811461208c57600080fd5b50565b60008135905061209e81612078565b92915050565b6000602082840312156120ba576120b9611eee565b5b60006120c88482850161208f565b91505092915050565b600073ffffffffffffffffffffffffffffffffffffffff82169050919050565b60006120fc826120d1565b9050919050565b61210c816120f1565b82525050565b60006020820190506121276000830184612103565b92915050565b612136816120f1565b811461214157600080fd5b50565b6000813590506121538161212d565b92915050565b600080604083850312156121705761216f611eee565b5b600061217e85828601612144565b925050602061218f8582860161208f565b9150509250929050565b6121a28161206e565b82525050565b60006020820190506121bd6000830184612199565b92915050565b6000806000606084860312156121dc576121db611eee565b5b60006121ea86828701612144565b93505060206121fb86828701612144565b925050604061220c8682870161208f565b9150509250925092565b60006020828403121561222c5761222b611eee565b5b600061223a84828501612144565b91505092915050565b61224c81611f7d565b811461225757600080fd5b50565b60008135905061226981612243565b92915050565b6000806040838503121561228657612285611eee565b5b600061229485828601612144565b92505060206122a58582860161225a565b9150509250929050565b600080fd5b600080fd5b7f4e487b7100000000000000000000000000000000000000000000000000000000600052604160045260246000fd5b6122f182612002565b810181811067ffffffffffffffff821117156123105761230f6122b9565b5b80604052505050565b6000612323611ee4565b905061232f82826122e8565b919050565b600067ffffffffffffffff82111561234f5761234e6122b9565b5b61235882612002565b9050602081019050919050565b82818337600083830152505050565b600061238761238284612334565b612319565b9050828152602081018484840111156123a3576123a26122b4565b5b6123ae848285612365565b509392505050565b600082601f8301126123cb576123ca6122af565b5b81356123db848260208601612374565b91505092915050565b600080600080608085870312156123fe576123fd611eee565b5b600061240c87828801612144565b945050602061241d87828801612144565b935050604061242e8782880161208f565b925050606085013567ffffffffffffffff81111561244f5761244e611ef3565b5b61245b878288016123b6565b91505092959194509250565b600067ffffffffffffffff821115612482576124816122b9565b5b61248b82612002565b9050602081019050919050565b60006124ab6124a684612467565b612319565b9050828152602081018484840111156124c7576124c66122b4565b5b6124d2848285612365565b509392505050565b600082601f8301126124ef576124ee6122af565b5b81356124ff848260208601612498565b91505092915050565b60006020828403121561251e5761251d611eee565b5b600082013567ffffffffffffffff81111561253c5761253b611ef3565b5b612548848285016124da565b91505092915050565b6000806040838503121561256857612567611eee565b5b600061257685828601612144565b925050602061258785828601612144565b9150509250929050565b7f4e487b7100000000000000000000000000000000000000000000000000000000600052602260045260246000fd5b600060028204905060018216806125d857607f821691505b602082108114156125ec576125eb612591565b5b50919050565b7f4552433732313a20617070726f76656420717565727920666f72206e6f6e657860008201527f697374656e7420746f6b656e0000000000000000000000000000000000000000602082015250565b600061264e602c83611fbe565b9150612659826125f2565b604082019050919050565b6000602082019050818103600083015261267d81612641565b9050919050565b7f4552433732313a20617070726f76616c20746f2063757272656e74206f776e6560008201527f7200000000000000000000000000000000000000000000000000000000000000602082015250565b60006126e0602183611fbe565b91506126eb82612684565b604082019050919050565b6000602082019050818103600083015261270f816126d3565b9050919050565b7f4552433732313a20617070726f76652063616c6c6572206973206e6f74206f7760008201527f6e6572206e6f7220617070726f76656420666f7220616c6c0000000000000000602082015250565b6000612772603883611fbe565b915061277d82612716565b604082019050919050565b600060208201905081810360008301526127a181612765565b9050919050565b7f4552433732313a207472616e736665722063616c6c6572206973206e6f74206f60008201527f776e6572206e6f7220617070726f766564000000000000000000000000000000602082015250565b6000612804603183611fbe565b915061280f826127a8565b604082019050919050565b60006020820190508181036000830152612833816127f7565b9050919050565b7f455243373231456e756d657261626c653a206f776e657220696e646578206f7560008201527f74206f6620626f756e6473000000000000000000000000000000000000000000602082015250565b6000612896602b83611fbe565b91506128a18261283a565b604082019050919050565b600060208201905081810360008301526128c581612889565b9050919050565b7f455243373231456e756d657261626c653a20676c6f62616c20696e646578206f60008201527f7574206f6620626f756e64730000000000000000000000000000000000000000602082015250565b6000612928602c83611fbe565b9150612933826128cc565b604082019050919050565b600060208201905081810360008301526129578161291b565b9050919050565b7f4e487b7100000000000000000000000000000000000000000000000000000000600052603260045260246000fd5b7f4552433732313a206f776e657220717565727920666f72206e6f6e657869737460008201527f656e7420746f6b656e0000000000000000000000000000000000000000000000602082015250565b60006129e9602983611fbe565b91506129f48261298d565b604082019050919050565b60006020820190508181036000830152612a18816129dc565b9050919050565b7f4552433732313a2062616c616e636520717565727920666f7220746865207a6560008201527f726f206164647265737300000000000000000000000000000000000000000000602082015250565b6000612a7b602a83611fbe565b9150612a8682612a1f565b604082019050919050565b60006020820190508181036000830152612aaa81612a6e565b9050919050565b7f4552433732314d657461646174613a2055524920717565727920666f72206e6f60008201527f6e6578697374656e7420746f6b656e0000000000000000000000000000000000602082015250565b6000612b0d602f83611fbe565b9150612b1882612ab1565b604082019050919050565b60006020820190508181036000830152612b3c81612b00565b9050919050565b600081905092915050565b6000612b5982611fb3565b612b638185612b43565b9350612b73818560208601611fcf565b80840191505092915050565b6000612b8b8285612b4e565b9150612b978284612b4e565b91508190509392505050565b6000612baf8284612b4e565b915081905092915050565b7f436f64657220616c7265616479206578697374732e2e00000000000000000000600082015250565b6000612bf0601683611fbe565b9150612bfb82612bba565b602082019050919050565b60006020820190508181036000830152612c1f81612be3565b9050919050565b7f4e487b7100000000000000000000000000000000000000000000000000000000600052601160045260246000fd5b6000612c608261206e565b9150612c6b8361206e565b925082821015612c7e57612c7d612c26565b5b828203905092915050565b7f4552433732313a206f70657261746f7220717565727920666f72206e6f6e657860008201527f697374656e7420746f6b656e0000000000000000000000000000000000000000602082015250565b6000612ce5602c83611fbe565b9150612cf082612c89565b604082019050919050565b60006020820190508181036000830152612d1481612cd8565b9050919050565b7f4552433732313a207472616e736665722066726f6d20696e636f72726563742060008201527f6f776e6572000000000000000000000000000000000000000000000000000000602082015250565b6000612d77602583611fbe565b9150612d8282612d1b565b604082019050919050565b60006020820190508181036000830152612da681612d6a565b9050919050565b7f4552433732313a207472616e7366657220746f20746865207a65726f2061646460008201527f7265737300000000000000000000000000000000000000000000000000000000602082015250565b6000612e09602483611fbe565b9150612e1482612dad565b604082019050919050565b60006020820190508181036000830152612e3881612dfc565b9050919050565b6000612e4a8261206e565b9150612e558361206e565b9250827fffffffffffffffffffffffffffffffffffffffffffffffffffffffffffffffff03821115612e8a57612e89612c26565b5b828201905092915050565b7f4552433732313a20617070726f766520746f2063616c6c657200000000000000600082015250565b6000612ecb601983611fbe565b9150612ed682612e95565b602082019050919050565b60006020820190508181036000830152612efa81612ebe565b9050919050565b7f4552433732313a207472616e7366657220746f206e6f6e20455243373231526560008201527f63656976657220696d706c656d656e7465720000000000000000000000000000602082015250565b6000612f5d603283611fbe565b9150612f6882612f01565b604082019050919050565b60006020820190508181036000830152612f8c81612f50565b9050919050565b6000612f9e8261206e565b91507fffffffffffffffffffffffffffffffffffffffffffffffffffffffffffffffff821415612fd157612fd0612c26565b5b600182019050919050565b7f4e487b7100000000000000000000000000000000000000000000000000000000600052601260045260246000fd5b60006130168261206e565b91506130218361206e565b92508261303157613030612fdc565b5b828204905092915050565b60006130478261206e565b91506130528361206e565b92508261306257613061612fdc565b5b828206905092915050565b7f4552433732313a206d696e7420746f20746865207a65726f2061646472657373600082015250565b60006130a3602083611fbe565b91506130ae8261306d565b602082019050919050565b600060208201905081810360008301526130d281613096565b9050919050565b7f4552433732313a20746f6b656e20616c7265616479206d696e74656400000000600082015250565b600061310f601c83611fbe565b915061311a826130d9565b602082019050919050565b6000602082019050818103600083015261313e81613102565b9050919050565b600081519050919050565b600082825260208201905092915050565b600061316c82613145565b6131768185613150565b9350613186818560208601611fcf565b61318f81612002565b840191505092915050565b60006080820190506131af6000830187612103565b6131bc6020830186612103565b6131c96040830185612199565b81810360608301526131db8184613161565b905095945050505050565b6000815190506131f581611f24565b92915050565b60006020828403121561321157613210611eee565b5b600061321f848285016131e6565b91505092915050565b7f4e487b7100000000000000000000000000000000000000000000000000000000600052603160045260246000fdfea264697066735822122016b9df11bf83dcfd5eba81584fb56aba624598cb43a01ddd3ff50ccc91674e7864736f6c634300080b0033",
  "immutableReferences": {},
  "source": "pragma solidity ^0.8.0;\r\nimport \"../client/node_modules/@openzeppelin/contracts/token/ERC721/ERC721.sol\";\r\nimport \"../client/node_modules/@openzeppelin/contracts/token/ERC721/extensions/ERC721Enumerable.sol\";   //With this, we can keep track of how many NFTs there are, and who posses them\r\n\r\n\r\ncontract CryptoCoders is ERC721, ERC721Enumerable{\r\n\r\n    string[] public coders;\r\n    mapping(string => bool) _coderExists;\r\n\r\n    constructor() ERC721(\"CryptoCoders\", \"CCS\"){\r\n\r\n    }\r\n\r\n    function mint(string memory coder) public {\r\n        require(!_coderExists[coder], \"Coder already exists..\");\r\n        coders.push(coder);\r\n        uint _id = coders.length - 1;\r\n        _mint(msg.sender, _id);\r\n        _coderExists[coder] = true;\r\n    }\r\n\r\n    function _beforeTokenTransfer(address from, address to, uint256 tokenId) internal override(ERC721, ERC721Enumerable){\r\n        super._beforeTokenTransfer(from, to, tokenId);\r\n    }\r\n\r\n    function supportsInterface(bytes4 interfaceId) public view override(ERC721, ERC721Enumerable) returns(bool){\r\n        return super.supportsInterface(interfaceId);\r\n    }\r\n}",
  "sourcePath": "C:\\Users\\bruno\\Desktop\\Proyectos-Aprendizaje\\CryptoCodersNFTs\\contracts\\CryptoCoders.sol",
  "compiler": {
    "name": "solc",
    "version": "0.8.11+commit.d7f03943.Emscripten.clang"
  },
  "schemaVersion": "3.4.7",
  "updatedAt": "2022-06-07T22:13:22.862Z",
  "networkType": "ethereum",
  "devdoc": {
    "kind": "dev",
    "methods": {
      "approve(address,uint256)": {
        "details": "See {IERC721-approve}."
      },
      "balanceOf(address)": {
        "details": "See {IERC721-balanceOf}."
      },
      "getApproved(uint256)": {
        "details": "See {IERC721-getApproved}."
      },
      "isApprovedForAll(address,address)": {
        "details": "See {IERC721-isApprovedForAll}."
      },
      "name()": {
        "details": "See {IERC721Metadata-name}."
      },
      "ownerOf(uint256)": {
        "details": "See {IERC721-ownerOf}."
      },
      "safeTransferFrom(address,address,uint256)": {
        "details": "See {IERC721-safeTransferFrom}."
      },
      "safeTransferFrom(address,address,uint256,bytes)": {
        "details": "See {IERC721-safeTransferFrom}."
      },
      "setApprovalForAll(address,bool)": {
        "details": "See {IERC721-setApprovalForAll}."
      },
      "symbol()": {
        "details": "See {IERC721Metadata-symbol}."
      },
      "tokenByIndex(uint256)": {
        "details": "See {IERC721Enumerable-tokenByIndex}."
      },
      "tokenOfOwnerByIndex(address,uint256)": {
        "details": "See {IERC721Enumerable-tokenOfOwnerByIndex}."
      },
      "tokenURI(uint256)": {
        "details": "See {IERC721Metadata-tokenURI}."
      },
      "totalSupply()": {
        "details": "See {IERC721Enumerable-totalSupply}."
      },
      "transferFrom(address,address,uint256)": {
        "details": "See {IERC721-transferFrom}."
      }
    },
    "version": 1
  },
  "userdoc": {
    "kind": "user",
    "methods": {},
    "version": 1
  }
}